:100000003721000037210000EF008051EF00004D44
:10001000EF0080486FF05FFF0A0D4E756D626572EC
:100020003A20000A0D4F70657261746F7220000AE9
:100030000D526573756C74203D200041190000005D
:10004000726973637600010F000000057276333227
:100050006932703000000000130101FF23261100F7
:100060002324810023225100232061001304000077
:10007000EF00C02EB30F0500EF00C02733850F003F
:100080009302A000630C55029302D000630855024E
:10009000930200026304550293020003E34A55FCF5
:1000A00093029003E3C6A2FC1375F500330304002A
:1000B000131444003364A4006FF09FFB3305040065
:1000C0000323010083224100032481008320C10017
:1000D000130101016780000041190000007269737B
:1000E000637600010F0000000572763332693270CA
:1000F00030000000130101FF2326110023245100CA
:10010000232261002320C101B701440023A2A100E2
:100110001305100023A6A10023A6010093021000DE
:1001200003A3410133735300E30A03FE03A5010156
:10013000032E010003234100832281008320C1009C
:10014000130101016780000041190000007269730A
:10015000637600010F000000057276333269327059
:1001600030000000130141FF23241100232251001D
:1001700023206100B701460023A2A100130510004F
:1001800023A6A10023A601009302100003A34101AE
:1001900033735300E30A03FE03A5010103230100A7
:1001A00083224100832081001301C1006780000089
:1001B0004119000000726973637600010F000000AE
:1001C000057276333269327030000000130141FE4F
:1001D0002320510023226100232471002326C10122
:1001E0002328E101232AF101232C110093050000AB
:1001F000930F1000939FFF00939515001303300099
:1002000093035000130EF000930210009392F2003B
:10021000B3F2A20063840200938515001315150044
:1002200093DF1F0063820F04B3F2C50163D4720031
:100230006F004002B3826200B3F2C201130F0000EC
:10024000130FFFFF334FEE01B3E2E201B3E5C50147
:10025000B3F555001313430093934300131E4E0050
:10026000E30C0EF86FF05FFC1305A000EF008008B0
:100270001305D000EF000008130E800093820500E4
:1002800093D2C20093F2F20093820203138502001C
:10029000EF00400693954500135E1E0063040E00B8
:1002A0006FF0DFFD1305A000EF00C0041305D000C0
:1002B000EF004004832201000323410083238100D7
:1002C000032EC100032F0101832F410183208101EF
:1002D0001301C101678000004119000000726973B9
:1002E000637600010F0000000572763332693270C8
:1002F00030000000130141FF232051002322610040
:1003000023241100B701400023A4A1009302100090
:1003100023A851009302000023A85100930200205B
:1003200003A3010133735300E31C03FE8320810008
:1003300003234100832201001301C10067800000F4
:100340004119000000726973637600010F0000001C
:10035000057276333269327030000000130181FF7C
:100360002320510023221100B701400003A5010101
:1003700093720510E38C02FE9302200023A8510023
:1003800003A581001375F50F83204100832201002E
:100390001301810067800000411900000072697339
:1003A000637600010F000000057276333269327007
:1003B00030000000130181FF23201100232271006F
:1003C000B303050003C5030063080500EFF09FF2C7
:1003D000938313006FF01FFF8323410083200100EC
:1003E00013018100678000004119000000726973E9
:1003F000637600010F0000000572763332693270B7
:10040000300000001301C1FE2328110023265100F3
:1004100023246100232271002320A1009302000203
:100420001353F5016308030013051003EFF09FEC6D
:100430006F00C00013050003EFF0DFEB03250100A0
:10044000131515002320A1009382F2FFE39A02FC0A
:100450001305A000EFF01FEA1305D000EFF09FE9AD
:100460000325010083234100032381008322C1006F
:100470008320010113014101678000004119000040
:1004800000726973637600010F0000000572763315
:100490003269327030000000B701430023A2A1008E
:1004A0009302100023A6510023A6010003A34101DB
:1004B00033735300E30C03FE03A5010167800000C2
:1004C0004119000000726973637600010F0000009B
:1004D000057276333269327030000000B701410096
:1004E00023A2A1009302100023A6510023A601001D
:1004F00003A3410133735300E30C03FE03A5010181
:100500006780000041190000007269736376000182
:100510000F0000000572763332693270300000003F
:10052000B701420023A2A10023A4B10013051000CB
:1005300023A6A10023A601009302100003A34101FA
:1005400033735300E30A03FE03A501016780000033
:100550004119000000726973637600010F0000000A
:0A0560000572763332693270300004
:00000001FF
